:08000000803102288731FD2F39
:100CF400200091019201803093000800F00022004E
:100D04009E1C812E70089A00080086317A2686314E
:100D140086319426863110302000960087311727BB
:100D24008031022822009E169D173E00CE134E13DA
:100D34001030A6003D004B08E0391738CB002200E4
:100D44001E119F1133309B009D171D169E161E12F7
:100D54000800F401F501701CB32E7208F40773083F
:100D6400F53D0130F235F30D890BB42E0130F13627
:100D7400F00C890BB92E70087104031DAD2E750893
:100D8400F1007408F0000800F601F11FD02EF009FC
:100D9400F109F00A0319F10AF601F60AF31FDB2E32
:100DA400F209F309F20A0319F30A0130F400740892
:100DB400F606F701F8017008710403190A2FF5010A
:100DC400F50AF11BEF2E0130F035F10D890BE62EFB
:100DD4000130F4007408F507E32E0130F735F80DFF
:100DE400890BF02E71087302031DFA2E700872022B
:100DF400031C012F7008F2027108F33B77140130D1
:100E0400F136F00C890B022F0130F502031DEF2E91
:100E140076080319122FF709F809F70A0319F80AD3
:100E24007808F1007708F00008002000BA01BB013F
:100E34000230BC000030BD00B201B3010230B40086
:100E44000030B500AA01AB01AC01AD013530A800FA
:100E54000030A9003430AE000030AF003630B000AE
:100E64000030B1002F08803AA0003308803A2002F5
:100E7400031D3E2F32082E02031C080020003108F7
:100E8400803AA0003508803A2002031D4B2F340815
:100E94003002031C080020002F08803AA0003B0801
:100EA400803A2002031D582F3A082E02031C080022
:100EB40020003108803AA0003D08803A2002031D3A
:100EC400652F3C083002031C080020003308B700DB
:100ED4003208B6003508803AA0003708803A20026C
:100EE400031D762F36083402031CBF2F20003B0855
:100EF400B9003A08B8003D08803AA0003908803AA1
:100F04002002031D872F38083C02031CB92F200040
:100F14003908A1003808A000A035A10D3708F10058
:100F24003608F0006E30F2000030F3008631AB2654
:100F3400873100302000A2008830A3007008220707
:100F4400A4007108233DA500240820078400250877
:100F5400213D8500003FA600013FA7002608AA07FF
:100F64002708AB3D0130B8070030B93D7D2F013073
:100F74002000B6070030B73D6C2F01302000BA07BF
:100F84000030BB3D0130BC070030BD3D0930F000EE
:100F94000030F1002B08F3002A08F2008631C6263F
:100FA400873171082000AD007008AC002C08863130
:100FB400802687312000AC01AD01AA01AB012908CC
:100FC4003B06031DE72F28083A06031D342F37304C
:100FD4003C063D04031D342F0230BC000030BD002C
:100FE400BA01BB010130B2070030B33D0130B40790
:100FF4000030B53D342F20008631872E0034003474
:10100400003400340034003400340034003400343C
:10101400003400340034003400340034003400342C
:10102400003400340034003400340034003400341C
:10103400003400340034003400340034003400340C
:101E0400C3340034DF340034DF340034DF340034CE
:101E1400DF340034DF340034DF340034DF340034A2
:101E2400DF340034DF340034DF340034DF34003492
:101E3400DF340034DF340034DF340034DF34003482
:101E4400DF340034DF340034DF340034DF34003472
:101E5400C23400340034003400340034003400341C
:101E640000340034003400340034003400340034CE
:101E740000340034003400340034003400340034BE
:101E840000340034003400340034003400340034AE
:101E9400003400340034003400340034003400349E
:101EA400003400340034003400340034003400348E
:101EB400003400340034003400340034003400347E
:101EC400003400340034003400340034003400346E
:101ED400003400340034003400340034DE34003480
:101EE400FF340034FF340034FF340034FF34003452
:101EF400FF340034FF340034FF340034FF34003442
:101F0400FF340034FF340034FF340034FF34003431
:101F1400FF340034FF340034FF340034FF34003421
:101F2400FF340034FF340034FF340034DE34003432
:101F340000340034003400340034003400340034FD
:101F440000340034003400340034003400340034ED
:101F540000340034003400340034003400340034DD
:101F640000340034003400340034003400340034CD
:101F740000340034003400340034003400340034BD
:101F840000340034003400340034003400340034AD
:101F9400003400340034003400340034003400349D
:101FA400003400340034003400340034003400348D
:101FB4000034003400340034DE340034FF340034A0
:101FC400FF340034FF340034FF340034FF34003471
:101FD400FF340034FF340034FF340034FF34003461
:101FE400FF340034FF340034FF340034FF34003451
:101FF400FF340034FF340034FF340034FF34003441
:10200400FF340034FF340034DE3400340034003450
:10201400003400340034003400340034003400341C
:10202400003400340034003400340034003400340C
:1020340000340034003400340034003400340034FC
:1020440000340034003400340034003400340034EC
:1020540000340034003400340034003400340034DC
:1020640000340034003400340034003400340034CC
:1020740000340034003400340034003400340034BC
:1020840000340034003400340034003400340034AC
:1020940000340034DE340034FF340034FF340034C0
:1020A400FF340034FF340034FF340034FF34003490
:1020B400FF340034FF340034FF340034FF34003480
:1020C400FF340034FF340034FF340034FF34003470
:1020D400FF340034FF340034FF340034FF34003460
:1020E400FF340034DE34003400340034003400346F
:1020F400003400340034003400340034003400343C
:10210400003400340034003400340034003400342B
:10211400003400340034003400340034003400341B
:10212400003400340034003400340034003400340B
:1021340000340034003400340034003400340034FB
:1021440000340034003400340034003400340034EB
:1021540000340034003400340034003400340034DB
:1021640000340034003400340034003400340034CB
:10217400DE340034FF340034FF340034FD340034E2
:102184007C3400347C3400347C3400347C340034BB
:102194007C3400347C3400347C3400348A3400349D
:1021A400FF340034FF340034FF340034FF3400348F
:1021B400FF340034FF340034FF340034FF3400347F
:1021C400DE3400340034003400340034003400348D
:1021D400003400340034003400340034003400345B
:1021E400003400340034003400340034003400344B
:1021F400003400340034003400340034003400343B
:10220400003400340034003400340034003400342A
:10221400003400340034003400340034003400341A
:10222400003400340034003400340034003400340A
:1022340000340034003400340034003400340034FA
:10224400003400340034003400340034DE3400340C
:10225400FF340034FF340034FB34003400340034E1
:1022640000340034003400340034003400340034CA
:1022740000340034003400341D340034FF3400349E
:10228400FF340034FF340034FF340034FF340034AE
:10229400FF340034FF340034FF340034DE340034BF
:1022A400003400340034003400340034003400348A
:1022B400003400340034003400340034003400347A
:1022C400003400340034003400340034003400346A
:1022D400003400340034003400340034003400345A
:1022E400003400340034003400340034003400344A
:1022F400003400340034003400340034003400343A
:102304000034003400340034003400340034003429
:102314000034003400340034003400340034003419
:102324000034003400340034DE340034FF3400342C
:10233400FF340034FB3400340034003400340034FF
:1023440000340034003400340034003400340034E9
:10235400003400341D340034FF340034FF340034BE
:10236400FF340034FF340034FF340034FF340034CD
:10237400FF340034FF340034DE34003400340034DD
:1023840000340034003400340034003400340034A9
:102394000034003400340034003400340034003499
:1023A4000034003400340034003400340034003489
:1023B4000034003400340034003400340034003479
:1023C4000034003400340034003400340034003469
:1023D4000034003400340034003400340034003459
:1023E4000034003400340034003400340034003449
:1023F4000034003400340034003400340034003439
:1024040000340034DE340034FF340034FF3400344C
:10241400FB3400340034003400340034003400341D
:102424000034003400340034003400340034003408
:102434001D340034FF340034FF340034FF340034DE
:10244400FF340034FF340034FF340034FF340034EC
:10245400FF340034DE3400340034003400340034FB
:1024640000340034003400340034003400340034C8
:1024740000340034003400340034003400340034B8
:1024840000340034003400340034003400340034A8
:102494000034003400340034003400340034003498
:1024A4000034003400340034003400340034003488
:1024B4000034003400340034003400340034003478
:1024C4000034003400340034003400340034003468
:1024D4000034003400340034003400340034003458
:1024E400DE340034FF340034FF340034FB34003471
:1024F4000034003400340034003400340034003438
:102504000034003400340034003400341D3400340A
:10251400FF340034FF340034FF340034FF3400341B
:10252400FF340034FF340034FF340034FF3400340B
:10253400DE34003400340034003400340034003419
:1025440000340034003400340034003400340034E7
:1025540000340034003400340034003400340034D7
:1025640000340034003400340034003400340034C7
:1025740000340034003400340034003400340034B7
:1025840000340034003400340034003400340034A7
:102594000034003400340034003400340034003497
:1025A4000034003400340034003400340034003487
:1025B400003400340034003400340034DE34003499
:1025C400FF340034FF340034FB340034003400346E
:1025D4000034003400340034003400340034003457
:1025E40000340034003400341D340034FF3400342B
:1025F400FF340034FF340034FF340034FF3400343B
:10260400FF340034FF340034FF340034DE3400344B
:102614000034003400340034003400340034003416
:102624000034003400340034003400340034003406
:1026340000340034003400340034003400340034F6
:1026440000340034003400340034003400340034E6
:1026540000340034003400340034003400340034D6
:1026640000340034003400340034003400340034C6
:1026740000340034003400340034003400340034B6
:1026840000340034003400340034003400340034A6
:102694000034003400340034DE340034FF340034B9
:1026A400FF340034FB34003400340034003400348C
:1026B4000034003400340034003400340034003476
:1026C400003400341D340034FF340034FF3400344B
:1026D400FF340034FF340034FF340034FF3400345A
:1026E400FF340034FF340034DE340034003400346A
:1026F4000034003400340034003400340034003436
:102704000034003400340034003400340034003425
:102714000034003400340034003400340034003415
:102724000034003400340034003400340034003405
:1027340000340034003400340034003400340034F5
:1027440000340034003400340034003400340034E5
:1027540000340034003400340034003400340034D5
:1027640000340034003400340034003400340034C5
:1027740000340034DE340034FF340034FF340034D9
:10278400FB3400340434003404340034043400349E
:102794000434003404340034043400340434003485
:1027A40020340034FF340034FF340034FF34003468
:1027B400FF340034FF340034FF340034FF34003479
:1027C400FF340034DE340034003400340034003488
:1027D4000034003400340034003400340034003455
:1027E4000034003400340034003400340034003445
:1027F4000034003400340034003400340034003435
:102804000034003400340034003400340034003424
:102814000034003400340034003400340034003414
:102824000034003400340034003400340034003404
:1028340000340034003400340034003400340034F4
:1028440000340034003400340034003400340034E4
:10285400DE340034FF340034FF340034FF340034F9
:10286400FF340034FF340034FF340034FF340034C8
:10287400FF340034FF340034FF340034FF340034B8
:10288400FF340034FF340034FF340034FF340034A8
:10289400FF340034FF340034FF340034FF34003498
:1028A400DE340034003400340034003400340034A6
:1028B4000034003400340034003400340034003474
:1028C4000034003400340034003400340034003464
:1028D4000034003400340034003400340034003454
:1028E4000034003400340034003400340034003444
:1028F4000034003400340034003400340034003434
:102904000034003400340034003400340034003423
:102914000034003400340034003400340034003413
:10292400003400340034003400340034DE34003425
:10293400FF340034FF340034FF340034FF340034F7
:10294400FF340034FF340034FF340034FF340034E7
:10295400FF340034FF340034FF340034FF340034D7
:10296400FF340034FF340034FF340034FF340034C7
:10297400FF340034FF340034FF340034DE340034D8
:1029840000340034003400340034003400340034A3
:102994000034003400340034003400340034003493
:1029A4000034003400340034003400340034003483
:1029B4000034003400340034003400340034003473
:1029C4000034003400340034003400340034003463
:1029D4000034003400340034003400340034003453
:1029E4000034003400340034003400340034003443
:1029F4000034003400340034003400340034003433
:102A04000034003400340034DE340034FF34003445
:102A1400FF340034FF340034FF340034FF34003416
:102A2400FF340034FF340034FF340034FF34003406
:102A3400FF340034FF340034FF340034FF340034F6
:102A4400FF340034FF340034FF340034FF340034E6
:102A5400FF340034FF340034DE34003400340034F6
:102A640000340034003400340034003400340034C2
:102A740000340034003400340034003400340034B2
:102A840000340034003400340034003400340034A2
:102A94000034003400340034003400340034003492
:102AA4000034003400340034003400340034003482
:102AB4000034003400340034003400340034003472
:102AC4000034003400340034003400340034003462
:102AD4000034003400340034003400340034003452
:102AE40000340034DE340034FF340034FF34003466
:102AF400FF340034FF340034FF340034FF34003436
:102B0400FF340034FF340034FF340034FF34003425
:102B1400FF340034FF340034FF340034FF34003415
:102B2400FF340034FF340034FF340034FF34003405
:102B3400FF340034DE340034003400340034003414
:102B440000340034003400340034003400340034E1
:102B540000340034003400340034003400340034D1
:102B640000340034003400340034003400340034C1
:102B740000340034003400340034003400340034B1
:102B840000340034003400340034003400340034A1
:102B94000034003400340034003400340034003491
:102BA4000034003400340034003400340034003481
:102BB4000034003400340034003400340034003471
:102BC400DE340034FF340034FF340034FF34003486
:102BD400FF340034FF340034FF340034FF34003455
:102BE400FF340034FF340034FF340034FF34003445
:102BF400FF340034FF340034FF340034FF34003435
:102C0400FF340034FF340034FF340034FF34003424
:102C1400DE34003400340034003400340034003432
:102C24000034003400340034003400340034003400
:102C340000340034003400340034003400340034F0
:102C440000340034003400340034003400340034E0
:102C540000340034003400340034003400340034D0
:102C640000340034003400340034003400340034C0
:102C740000340034003400340034003400340034B0
:102C840000340034003400340034003400340034A0
:102C9400003400340034003400340034DE340034B2
:102CA400FF340034FF340034FF340034FF34003484
:102CB400FF340034FF340034FF340034FF34003474
:102CC400FF340034FF340034FF340034FF34003464
:102CD400FF340034FF340034FF340034FF34003454
:102CE400FF340034FF340034FF340034DE34003465
:102CF4000034003400340034003400340034003430
:102D0400003400340034003400340034003400341F
:102D1400003400340034003400340034003400340F
:102D240000340034003400340034003400340034FF
:102D340000340034003400340034003400340034EF
:102D440000340034003400340034003400340034DF
:102D540000340034003400340034003400340034CF
:102D640000340034003400340034003400340034BF
:102D74000034003400340034DE340034FF340034D2
:102D8400FF340034FF340034FF340034FF340034A3
:102D9400FF340034FF340034FF340034FF34003493
:102DA400FF340034FF340034FF340034FF34003483
:102DB400FF340034FF340034FF340034FF34003473
:102DC400FF340034FF340034DE3400340034003483
:102DD400003400340034003400340034003400344F
:102DE400003400340034003400340034003400343F
:102DF400003400340034003400340034003400342F
:102E0400003400340034003400340034003400341E
:102E1400003400340034003400340034003400340E
:102E240000340034003400340034003400340034FE
:102E340000340034003400340034003400340034EE
:102E440000340034003400340034003400340034DE
:102E540000340034DE340034FF340034FF340034F2
:102E6400FF340034FF340034FF340034FF340034C2
:102E7400FF340034FF340034FF340034FF340034B2
:102E8400FF340034FF340034FF340034FF340034A2
:102E9400FF340034FF340034FF340034FF34003492
:102EA400FF340034DE3400340034003400340034A1
:102EB400003400340034003400340034003400346E
:102EC400003400340034003400340034003400345E
:102ED400003400340034003400340034003400344E
:102EE400003400340034003400340034003400343E
:102EF400003400340034003400340034003400342E
:102F0400003400340034003400340034003400341D
:102F1400003400340034003400340034003400340D
:102F240000340034003400340034003400340034FD
:102F3400DE340034FF340034FF340034FF34003412
:102F4400FF340034FF340034FF340034FF340034E1
:102F5400FF340034FF340034FF340034FF340034D1
:102F6400FF340034FF340034FF340034FF340034C1
:102F7400FF340034FF340034FF340034FF340034B1
:102F8400DE340034003400340034003400340034BF
:102F9400003400340034003400340034003400348D
:102FA400003400340034003400340034003400347D
:102FB400003400340034003400340034003400346D
:102FC400003400340034003400340034003400345D
:102FD400003400340034003400340034003400344D
:102FE400003400340034003400340034003400343D
:102FF400003400340034003400340034003400342D
:10300400003400340034003400340034DE3400343E
:10301400FF340034FF340034FF340034FF34003410
:10302400FF340034FF340034FF340034FF34003400
:10303400FF340034FF340034FF340034FF340034F0
:10304400FF340034FF340034FF340034FF340034E0
:10305400FF340034FF340034FF340034DE340034F1
:1030640000340034003400340034003400340034BC
:1030740000340034003400340034003400340034AC
:10308400003400340034003400340034003400349C
:10309400003400340034003400340034003400348C
:1030A400003400340034003400340034003400347C
:1030B400003400340034003400340034003400346C
:1030C400003400340034003400340034003400345C
:1030D400003400340034003400340034003400344C
:1030E4000034003400340034C3340034DF3400349A
:1030F400DF340034DF340034DF340034DF340034B0
:10310400DF340034DF340034DF340034DF3400349F
:10311400DF340034DF340034DF340034DF3400348F
:10312400DF340034DF340034DF340034DF3400347F
:10313400DF340034DF340034C2340034003400346B
:1031440000340034003400340034003400340034DB
:1031540000340034003400340034003400340034CB
:1031640000340034003400340034003400340034BB
:1031740000340034003400340034003400340034AB
:10350400003400340034003400340034CA3400344D
:10351400CB340034CB340034CB340034CB340034DB
:10352400CB340034CB340034B834003400340034A9
:1035340000340034003400340034003400340034E7
:1035440000340034003400340034003400340034D7
:1035540000340034003400340034003400340034C7
:1035640000340034003400340034003400340034B7
:1035740000340034003400340034003400340034A7
:103584000034003400340034003400340034003497
:103594000034003400340034003400340034003487
:1035A4000034003400340034003400340034003477
:1035B4000034003400340034003400340034003467
:1035C4000034003400340034003400340034003457
:1035D4000034003400340034003400340034003447
:1035E4000034003400340034FE340034FF3400343A
:1035F400FF340034FF340034FF340034FF3400342B
:10360400FF340034E7340034003400340034003430
:103614000034003400340034003400340034003406
:1036240000340034003400340034003400340034F6
:1036340000340034003400340034003400340034E6
:1036440000340034003400340034003400340034D6
:1036540000340034003400340034003400340034C6
:1036640000340034003400340034003400340034B6
:1036740000340034003400340034003400340034A6
:103684000034003400340034003400340034003496
:103694000034003400340034003400340034003486
:1036A4000034003400340034003400340034003476
:1036B4000034003400340034003400340034003466
:1036C40000340034FE340034FF340034FF3400345A
:1036D400FF340034FF340034FF340034FF3400344A
:1036E400E73400340034003400340034003400344F
:1036F4000034003400340034003400340034003426
:103704000034003400340034003400340034003415
:103714000034003400340034003400340034003405
:1037240000340034003400340034003400340034F5
:1037340000340034003400340034003400340034E5
:1037440000340034003400340034003400340034D5
:1037540000340034003400340034003400340034C5
:1037640000340034003400340034003400340034B5
:1037740000340034003400340034003400340034A5
:103784000034003400340034003400340034003495
:103794000034003400340034003400340034003485
:1037A400FE340034FF340034FF340034FF3400347A
:1037B400FF340034FF340034FF340034E734003481
:1037C4000034003400340034003400340034003455
:1037D4000034003400340034003400340034003445
:1037E4000034003400340034003400340034003435
:1037F4000034003400340034003400340034003425
:103804000034003400340034003400340034003414
:103814000034003400340034003400340034003404
:1038240000340034003400340034003400340034F4
:1038340000340034003400340034003400340034E4
:1038440000340034003400340034003400340034D4
:1038540000340034003400340034003400340034C4
:1038640000340034003400340034003400340034B4
:10387400003400340034003400340034FE340034A6
:10388400FF340034FF340034FF340034FF34003498
:10389400FF340034FF340034E7340034003400349F
:1038A4000034003400340034003400340034003474
:1038B4000034003400340034003400340034003464
:1038C4000034003400340034003400340034003454
:1038D4000034003400340034003400340034003444
:1038E4000034003400340034003400340034003434
:1038F4000034003400340034003400340034003424
:103904000034003400340034003400340034003413
:103914000034003400340034003400340034003403
:1039240000340034003400340034003400340034F3
:1039340000340034003400340034003400340034E3
:1039440000340034003400340034003400340034D3
:103954000034003400340034FE340034FF340034C6
:10396400FF340034FF340034FF340034FF340034B7
:10397400FF340034E73400340034003400340034BD
:103984000034003400340034003400340034003493
:103994000034003400340034003400340034003483
:1039A4000034003400340034003400340034003473
:1039B4000034003400340034003400340034003463
:1039C4000034003400340034003400340034003453
:1039D4000034003400340034003400340034003443
:1039E4000034003400340034003400340034003433
:1039F4000034003400340034003400340034003423
:103A04000034003400340034003400340034003412
:103A14000034003400340034003400340034003402
:103A240000340034003400340034003400340034F2
:103A340000340034FE340034FF340034FF340034E6
:103A4400FF340034FF340034FF340034FF340034D6
:103A5400E7340034003400340034003400340034DB
:103A640000340034003400340034003400340034B2
:103A740000340034003400340034003400340034A2
:103A84000034003400340034003400340034003492
:103A94000034003400340034003400340034003482
:103AA4000034003400340034003400340034003472
:103AB4000034003400340034003400340034003462
:103AC4000034003400340034003400340034003452
:103AD4000034003400340034003400340034003442
:103AE4000034003400340034003400340034003432
:103AF4000034003400340034003400340034003422
:103B04000034003400340034003400340034003411
:103B1400B2340034B3340034B3340034B334003436
:103B2400B3340034B3340034B3340034A334003435
:103B340000340034003400340034003400340034E1
:103B440000340034003400340034003400340034D1
:103B540000340034003400340034003400340034C1
:103B640000340034003400340034003400340034B1
:020000040001F9
:0A000E008C3FFF3F9F3FFF3FFF3F85
:00000001FF
