:020000040000FA
:08000000803102288731EF2F47
:10085A00FE0012001E000130FE020030FF3B7F083E
:10086A007E04031D2E2C0034F401F5013C2C701C6F
:10087A003F2C402C442C7208F4077308F53D0130D4
:10088A00F235F30D890B452C0130F136F00C890B4A
:10089A004A2C70087104031D532C542C3C2C552CE3
:1008AA007508F1007408F0005A2C0800F601F11FCF
:1008BA005F2C602C682CF009F109F00A0319F10A7F
:1008CA00F601F60A682CF31F6B2C6C2C762CF209B5
:1008DA00F309F20A0319F30A0130F4007408F60660
:1008EA00762CF701F8017008710403197D2C7E2C0F
:1008FA00B32CF501F50A8B2C0130F035F10D890B7B
:10090A00822C0130F4007408F5078B2CF11F8E2C11
:10091A008F2C812C912C912C0130F735F80D890BF5
:10092A00922C71087302031D9C2C70087202031C1E
:10093A009F2CA02CA62C7008F2027108F33B7714A6
:10094A00A62C0130F136F00C890BA72C0130F502E8
:10095A00031DB02CB12C912CB32CB32C760803199F
:10096A00B72CB82CBE2CF709F809F70A0319F80AAC
:10097A00BE2C7808F1007708F000C32C080076082E
:10098A002000A0007708A1007808A2007908A30037
:10099A000310220D230DA4002408FB007B08031D6D
:1009AA00D72CD82CE22C0030F9000030F8000030A7
:1009BA00F7000030F600582D582D7608A000770869
:1009CA00A1007808A2007908A3001F30A336A20C60
:1009DA00A10CA00C890BEB2C2008A4002408FA0017
:1009EA00F817FF30F605FF30F705FF30F80500303D
:1009FA00F9059630FB02FB1F032D042D272D7B08DA
:100A0A00803A973E03180A2D0B2D162D0030F90057
:100A1A000030F8000030F7000030F600582D582D4D
:100A2A00162D0130F936F80CF70CF60C890B172D38
:100A3A000130A0002008FB07031D242D252D162DAB
:100A4A00482D482D20307B02031C2C2D2D2D412DA5
:100A5A000030F9000030F8000030F7000030F600EE
:100A6A00582D582D412D0130F635F70DF80DF90D99
:100A7A00890B392D0130FB027B08031D452D462DBC
:100A8A00382D482D482D7A0803194C2D4D2D582DF7
:100A9A00F609F709F809F909F60A0319F70A031911
:100AAA00F80A0319F90A08002000BD01BE01023044
:100ABA00BF000030C000B501B6010230B7000030F7
:100ACA00B800AF01B001AB01AC010830AD00003095
:100ADA00AE000730B1000030B2000930B300003078
:100AEA00B4001E2E20003608BA003508B900D12DF0
:100AFA0020003E08BC003D08BB00BD2D20003C087C
:100B0A00A6003B08A500A535A60DA535A60D2830DB
:100B1A00F2000030F3003A08F1003908F00084319D
:100B2A003924853160302000A7002230A8007008DF
:100B3A002707A9007108283DAA0025082907860069
:100B4A0026082A3D8700403FF600413FF700423F12
:100B5A00F800433FF9008431C42485317608200027
:100B6A00AF077708B03D0130BB070030BC3DBD2D53
:100B7A004008803AA5003C08803A2502031DC72D8B
:100B8A003B083F020318CA2DCB2D832DCC2D0130F3
:100B9A002000B9070030BA3D3808803AA5003A0863
:100BAA00803A2502031DDB2D390837020318DE2D92
:100BBA00DF2D7D2DE02D01302000BD070030BE3D28
:100BCA000130BF070030C03D0930F0000030F100AD
:100BDA003008F3002F08F20084315B248531710854
:100BEA002000AC007008AB00AB01AC01AF01B00152
:100BFA002E083E06031D032E2D083D06031D062E54
:100C0A00072E1E2E0A303F064004031D0D2E0E2EFF
:100C1A001E2E0230BF000030C000BD01BE010130EF
:100C2A00B5070030B63D0130B7070030B83D1E2E7B
:100C3A001E2E3208803AA5003608803A2502031D86
:100C4A00282E35083102031C2B2E2C2E5C2E200058
:100C5A003408803AA5003808803A2502031D372E49
:100C6A0037083302031C3A2E3B2E5C2E2000320832
:100C7A00803AA5003E08803A2502031D462E3D080B
:100C8A003102031C492E4A2E5C2E20003408803A79
:100C9A00A5004008803A2502031D552E3F0833025D
:100CAA000318582E592E772D5C2E5C2E5C2E5C2E46
:100CBA008031022800340034003400340034003417
:100CCA00003400340034003400340034003400347A
:100CDA00003400340034003400340034003400346A
:100CEA00003400340034003400340034003400345A
:100CFA00003400340034003400340034003400344A
:100D0A000034003400340034003400340034003439
:100D1A000034003400340034003400340034003429
:100D2A000034003400340034003400340034003419
:100D3A000034003400340034003400340034003409
:100D4A0000340034003400340034003400340034F9
:100D5A0000340034003400340034003400340034E9
:100D6A0000340034003400340034003400340034D9
:100D7A00B434423400340034B434423400340034DD
:100D8A00B434423400340034B434423400340034CD
:100D9A00B4344234003400340034003400340034B3
:100DAA000034003400340034003400340034003499
:100DBA000034003400340034003400340034003489
:100DCA00B434423400340034003400340034003483
:100DDA00B434423400340034B4344234003400347D
:100DEA00B434423400340034003400340034003463
:100DFA000034003400340034003400340034003449
:100E0A000034003400340034003400340034003438
:100E1A00B434423400340034B4344234003400343C
:100E2A00B434423400340034B4344234003400342C
:100E3A00B434423400340034003400340034003412
:100E4A0000340034003400340034003400340034F8
:100E5A0000340034003400340034003400340034E8
:100E6A00B434423400340034B434423400340034EC
:100E7A00B434423400340034B434423400340034DC
:100E8A00B4344234003400340034003400340034C2
:100E9A0000340034003400340034003400340034A8
:100EAA000034003400340034003400340034003498
:100EBA00B434423400340034B4344234003400349C
:100ECA00B434423400340034B4344234003400348C
:100EDA00B434423400340034003400340034003472
:100EEA000034003400340034003400340034003458
:100EFA00B434423400340034003400340034003452
:100F0A000034003400340034003400340034003437
:100F1A000034003400340034003400340034003427
:100F2A000034003400340034003400340034003417
:100F3A000034003400340034003400340034003407
:100F4A0000340034003400340034003400340034F7
:100F5A0000340034003400340034003400340034E7
:100F6A0000340034003400340034003400340034D7
:100F7A0000340034003400340034003400340034C7
:100F8A0000340034003400340034003400340034B7
:100F9A0000340034003400340034003400340034A7
:100FAA000034003400340034003400340034003497
:100FBA000034003400340034003400340034003487
:100FCA000034003400340034003400340034003477
:100FDA00003400345F30840086308500603086003B
:100FEA00223087000130FF00903084312D24873170
:060FFA0020008531592D95
:020000040001F9
:0A000E008C3FFF3F9F3FFF3FFF3F85
:00000001FF
